{
  "contractName": "SimpleStorage",
  "abi": [
    {
      "anonymous": false,
      "inputs": [
        {
          "indexed": true,
          "internalType": "string",
          "name": "data",
          "type": "string"
        }
      ],
      "name": "DataChanged",
      "type": "event"
    },
    {
      "inputs": [],
      "name": "data",
      "outputs": [
        {
          "internalType": "string",
          "name": "",
          "type": "string"
        }
      ],
      "stateMutability": "view",
      "type": "function",
      "constant": true
    },
    {
      "inputs": [
        {
          "internalType": "string",
          "name": "_data",
          "type": "string"
        }
      ],
      "name": "setData",
      "outputs": [],
      "stateMutability": "nonpayable",
      "type": "function"
    }
  ],
  "bytecode": "0x60806040526040518060400160405280600581526020017f68656c6c6f0000000000000000000000000000000000000000000000000000008152506000908051906020019061004f929190610062565b5034801561005c57600080fd5b5061010d565b828054600181600116156101000203166002900490600052602060002090601f01602090048101928261009857600085556100df565b82601f106100b157805160ff19168380011785556100df565b828001600101855582156100df579182015b828111156100de5782518255916020019190600101906100c3565b5b5090506100ec91906100f0565b5090565b5b808211156101095760008160009055506001016100f1565b5090565b6103178061011c6000396000f3fe608060405234801561001057600080fd5b50600436106100365760003560e01c806347064d6a1461003b57806373d4a13a146100b4575b600080fd5b6100b26004803603602081101561005157600080fd5b810190808035906020019064010000000081111561006e57600080fd5b82018360208201111561008057600080fd5b803590602001918460018302840111640100000000831117156100a257600080fd5b9091929391929390505050610137565b005b6100bc610198565b6040518080602001828103825283818151815260200191508051906020019080838360005b838110156100fc5780820151818401526020810190506100e1565b50505050905090810190601f1680156101295780820380516001836020036101000a031916815260200191505b509250505060405180910390f35b818160009190610148929190610236565b50818160405180838380828437808301925050509250505060405180910390207f88f327eef3daeb9db633dd53ad4d5f13a7b0c2fd8939b5267d547593d844708260405160405180910390a25050565b60008054600181600116156101000203166002900480601f01602080910402602001604051908101604052809291908181526020018280546001816001161561010002031660029004801561022e5780601f106102035761010080835404028352916020019161022e565b820191906000526020600020905b81548152906001019060200180831161021157829003601f168201915b505050505081565b828054600181600116156101000203166002900490600052602060002090601f01602090048101928261026c57600085556102b3565b82601f1061028557803560ff19168380011785556102b3565b828001600101855582156102b3579182015b828111156102b2578235825591602001919060010190610297565b5b5090506102c091906102c4565b5090565b5b808211156102dd5760008160009055506001016102c5565b509056fea26469706673582212205717874c29da67c3f89cd3d70620aad04f658171dfd6f740b91d5a5dbe761ea664736f6c63430007040033",
  "immutableReferences": {},
  "source": "// SPDX-License-Identifier: MIT\npragma solidity >=0.4.22 <0.8.0;\n\ncontract SimpleStorage {\n    string public data = \"hello\";\n    event DataChanged(string indexed data);\n\n    function setData(string calldata _data) external {\n        data = _data;\n        emit DataChanged(_data);\n    }\n}\n",
  "sourcePath": "/home/wissal/Documents/dev-workspace/medium-tutos/drizzle-tuto2/contracts/SimpleStorage.sol",
  "compiler": {
    "name": "solc",
    "version": "0.7.4+commit.3f05b770.Emscripten.clang"
  },
  "schemaVersion": "3.3.1",
  "updatedAt": "2021-02-08T17:42:57.116Z",
  "networkType": "ethereum",
  "devdoc": {
    "kind": "dev",
    "methods": {},
    "version": 1
  },
  "userdoc": {
    "kind": "user",
    "methods": {},
    "version": 1
  }
}